:100000000C942B000C9453000C9453000C9453004C
:100010000C9453000C9453000C9453000C94530014
:100020000C9453000C9453000C9453000C94530004
:100030000C9453000C9405070C9453000C9453003B
:100040000C9453000C9453000C9453000C945300E4
:100050000C945300760211241FBECFE5D8E0DEBF1A
:10006000CDBF10E0A0E6B0E0EAE0F0E102C005900C
:100070000D92A036B107D9F714E0A0E6B0E001C0B8
:100080001D92A932B107E1F710E0C6E5D0E004C047
:100090002297FE010E94FF07C435D107C9F70E94CD
:1000A000E3000C9403080C9400001F93CF93DF939C
:1000B000CDB7DEB728970FB6F894DEBF0FBECDBF21
:1000C000188618E01F83CE010896BE01695F7F4F36
:1000D0000E94E607FC0180810E9427071E831D8382
:1000E000CE010696BE016B5F7F4F0E94E607FC01C2
:1000F00080810E94270780E18C831B83CE010496B8
:10010000BE016D5F7F4F0E94E607FC0180810E9467
:10011000270788E18A831983CE010296BE016F5FAB
:100120007F4F0E94E607FC0180810E9427072896E6
:100130000FB6F894DEBF0FBECDBFDF91CF911F91F8
:10014000089587B30E94270784B30E94270781B3CD
:100150000E94270788B30E94270785B30E942707BC
:1001600082B30E94270786B30E94270783B30E94A9
:10017000270780B30E94270708951F93CF93DF932B
:1001800000D00F92CDB7DEB780EC8B8385E08A83F9
:1001900086E08983CE010396BE016E5F7F4FAE017C
:1001A0004F5F5F4F0E9454010E948D01192F0E94E2
:1001B0002707812F0E9427070F900F900F90DF9144
:1001C000CF911F910895CF93DF93CDB7DEB72C97D2
:1001D0000FB6F894DEBF0FBECDBF0E941F07198671
:1001E000CE010A9661EA70E0AE01475F5F4F0E9460
:1001F0001807CE010A9660E20E94C9071D82CE014F
:1002000006966DEB70E0AE014B5F5F4F0E941807E2
:10021000CE01069661E20E94C90784E08983CE017F
:10022000029665E570E0AE014F5F5F4F0E941807D0
:10023000CE01029662E20E94C9070E94B10780E0E7
:1002400090E02C960FB6F894DEBF0FBECDBFDF91C5
:10025000CF910895FC01DB018C918083DA018C91B0
:1002600081830895FC018FEF80838183089520911D
:100270006000222361F03699FECF37982FEF3FEFD1
:1002800048E0215030404040E1F700C0000026B176
:100290002068FB013081232B26B927B1FC01808126
:1002A000822B87B978940895EF92FF921F93CF9392
:1002B000DF9300D00F92CDB7DEB77B01BA01F70113
:1002C00020812F70FC019081822F892B8B83CE019E
:1002D00003960E94370118E21A83CE0102960E940B
:1002E0002F020E94130211501032B1F7F7019081D2
:1002F00088E2891B8983CE0101960E942F020E9409
:10030000F60181E0809360000F900F900F90DF91D5
:10031000CF911F91FF90EF900895CF93DF9300D07E
:1003200000D0CDB7DEB780916000882339F4CE01CC
:1003300003960E9432018B819C810DC0369A3699BA
:10034000FECFCE01019664E270E045E250E00E94EB
:100350002A0189819A810F900F900F900F90DF9161
:10036000CF910895FC01A181B2814C9121E030E050
:10037000C901078002C0880F991F0A94E2F7842BF5
:100380008C93A581B6818C91078002C0220F331F08
:100390000A94E2F7209528232C930895FC01A1816B
:1003A000B2814C9121E030E0C901078002C0880F82
:1003B000991F0A94E2F7842B8C93A581B6818C91C6
:1003C000078002C0220F331F0A94E2F7282B2C93D8
:1003D0000895FC01A381B4818C9190E0078002C054
:1003E000959587950A94E2F781700895FC01A181A3
:1003F000B2814C9121E030E0C901078002C0880F32
:10040000991F0A94E2F7809584238C93A581B68185
:100410008C91078002C0220F331F0A94E2F72095C7
:1004200028232C930895FC01A181B2814C9121E0F5
:1004300030E0C901078002C0880F991F0A94E2F7D3
:10044000809584238C93A581B6818C91078002C00E
:10045000220F331F0A94E2F7282B2C930895FC01F6
:10046000908180916100981749F0EAE6F0E021E080
:1004700030E0A9018081891779F402C040E050E0A2
:10048000CA01880F991F880F991F880F991F840F21
:10049000951F8F599F4F08952F5F3F4F39962032F8
:1004A000310539F781E690E00895CF92DF92EF921F
:1004B000FF920F931F93CF93DF93FC01E701DB01C2
:1004C0008C918083528341833483238316830583F5
:1004D00088818783D6018C918087DF91CF911F918E
:1004E0000F91FF90EF90DF90CF9008952F923F9261
:1004F0004F925F926F927F928F929F92BF92CF9214
:10050000DF92EF92FF920F931F93CF93DF93CDB7BC
:10051000DEB7C058D0400FB6F894DEBF0FBECDBFD7
:10052000BB24B394B9821B821A82BC820F2EF1E6DF
:100530008F2EF0E09F2EF02DC401BE016F5F7F4F24
:1005400047E350E026E330E008E310E0EE24FF2428
:100550006894E1F8EC0EFD1ECC24DD246894C2F80A
:10056000CC0EDD1E0E94550282E08D8381E090E07A
:100570009F838E83B886C4010996BE016B5F7F4F4F
:1005800047E350E026E330E00F2EF6E0EF2EFF24A5
:10059000F02DEC0EFD1ECC24DD246894C3F8CC0EA7
:1005A000DD1E0E94550283E0898782E090E09B87F0
:1005B0008A87BC86C4014296BE01675F7F4F47E3CE
:1005C00050E026E330E00F2EFAE0EF2EFF24F02D6E
:1005D000EC0EFD1E0F2EFCE0CF2EDD24F02DCC0EF8
:1005E000DD1E0E94550284E08D8783E090E09F87A6
:1005F0008E87B88AC4014B96BE01635F7F4F47E385
:1006000050E026E330E00F2EFEE0EF2EFF24F02D29
:10061000EC0EFD1ECC24DD246894C4F8CC0EDD1E47
:100620000E94550285E0898B84E090E09B8B8A8B49
:10063000BC8AC4018496BE016F5E7F4F47E350E0E1
:1006400026E330E00F2EF2E1EF2EFF24F02DEC0E2A
:10065000FD1E0F2EF4E1CF2EDD24F02DCC0EDD1E7D
:100660000E94550286E08D8B0F2EF5E02F2E33244D
:10067000F02D3F8A2E8A188EC4018D96BE016B5EC6
:100680007F4F47E350E026E330E00F2EF6E1EF2EF8
:10069000FF24F02DEC0EFD1E0F2EF8E1CF2EDD24F1
:1006A000F02DCC0EDD1E0E94550287E0898F0F2EA3
:1006B000F6E04F2E5524F02D5B8E4A8E1C8EC40121
:1006C000C696BE01675E7F4F47E350E026E330E009
:1006D0000F2EFAE1EF2EFF24F02DEC0EFD1E0F2E53
:1006E000FCE1CF2EDD24F02DCC0EDD1E0E94550244
:1006F00088E08D8F0F2EF7E06F2E7724F02D7F8E00
:100700006E8E18A2C401CF96BE01635E7F4F47E391
:1007100050E026E330E00F2EFEE1EF2EFF24F02D17
:10072000EC0EFD1ECC24DD246894C5F8CC0EDD1E35
:100730000E9455028EE089A31BA21AA21CA289EA7C
:1007400090E0BE016F5D7F4F41E350E020E330E079
:1007500002E310E00F2EF2E2EF2EFF24F02DEC0E5C
:10076000FD1E0F2EF4E2CF2EDD24F02DCC0EDD1E6B
:100770000E9455028FE08DA381E090E09FA38EA39D
:1007800018A682EB90E0BE016B5D7F4F41E350E025
:1007900020E330E00F2EF6E2EF2EFF24F02DEC0EDA
:1007A000FD1E0F2EF8E2CF2EDD24F02DCC0EDD1E27
:1007B0000E94550280E189A782E090E09BA78AA76A
:1007C000BCA68BEB90E0BE01675D7F4F41E350E03C
:1007D00020E330E00F2EFAE2EF2EFF24F02DEC0E96
:1007E000FD1E0F2EFCE2CF2EDD24F02DCC0EDD1EE3
:1007F0000E94550281E18DA783E090E09FA78EA71C
:10080000B8AA84EC90E0BE01635D7F4F41E350E005
:1008100020E330E00F2EFEE2EF2EFF24F02DEC0E51
:10082000FD1E0F2EF0E3CF2EDD24F02DCC0EDD1EAD
:100830000E94550282E189AB84E090E09BAB8AABD9
:10084000BCAA8DEC90E0BE016F5C7F4F41E350E0AD
:1008500020E330E00F2EF2E3EF2EFF24F02DEC0E1C
:10086000FD1E0F2EF4E3CF2EDD24F02DCC0EDD1E69
:100870000E94550283E18DAB3FAA2EAAB8AE86ED49
:1008800090E0BE016B5C7F4F41E350E020E330E03D
:100890000F2EF6E3EF2EFF24F02DEC0EFD1E0F2E93
:1008A000F8E3CF2EDD24F02DCC0EDD1E0E94550284
:1008B00084E189AF5BAE4AAEBCAE8FED90E0BE0185
:1008C000675C7F4F41E350E020E330E00F2EFAE316
:1008D000EF2EFF24F02DEC0EFD1E0F2EFCE3CF2E8D
:1008E000DD24F02DCC0EDD1E0E94550285E18DAF7A
:1008F0007FAE6EAE2196BFAE219788EE90E0BE012E
:10090000635C7F4F41E350E020E330E00F2EFEE3D5
:10091000EF2EFF24F02DEC0EFD1ECC24DD24689478
:10092000C6F8CC0EDD1E0E94550286E122968FAFDE
:10093000229724961FAE1EAE24972596BFAE25970C
:1009400081EF90E0BE016F5B7F4F44E350E023E313
:1009500030E005E310E00F2EF2E4EF2EFF24F02D3F
:10096000EC0EFD1E0F2EF4E4CF2EDD24F02DCC0E68
:10097000DD1E0E94550287E126968FAF269781E003
:1009800090E028969FAF8EAF28972996BFAE299703
:100990008AEF90E0BE016B5B7F4F44E350E023E3BE
:1009A00030E00F2EF6E4EF2EFF24F02DEC0EFD1EAE
:1009B0000F2EF8E4CF2EDD24F02DCC0EDD1E0E948C
:1009C000550288E12A968FAF2A9782E090E02C9614
:1009D0009FAF8EAF2C972D96BFAE2D9783E091E001
:1009E000BE01675B7F4F44E350E023E330E00F2E0E
:1009F000FAE4EF2EFF24F02DEC0EFD1E0F2EFCE48A
:100A0000CF2EDD24F02DCC0EDD1E0E94550289E193
:100A10002E968FAF2E9783E090E060969FAF8EAFBB
:100A200060976196BFAE61978CE091E0BE01635B19
:100A30007F4F44E350E023E330E00F2EFEE4EF2E3F
:100A4000FF24F02DEC0EFD1E0F2EF0E5CF2EDD2441
:100A5000F02DCC0EDD1E0E9455028AE162968FAF0A
:100A6000629784E090E064969FAF8EAF649765963E
:100A7000BFAE659785E191E0BE016F5A7F4F44E3B9
:100A800050E023E330E00F2EF2E5EF2EFF24F02DAF
:100A9000EC0EFD1E0F2EF4E5CF2EDD24F02DCC0E36
:100AA000DD1E0E9455028BE166968FAF66976896B1
:100AB0003FAE2EAE68976996BFAE69978EE191E022
:100AC000BE016B5A7F4F44E350E023E330E00F2E2A
:100AD000F6E5EF2EFF24F02DEC0EFD1E0F2EF8E5AF
:100AE000CF2EDD24F02DCC0EDD1E0E9455028CE1B0
:100AF0006A968FAF6A976C965FAE4EAE6C976D96A6
:100B0000BFAE6D9787E291E0BE01675A7F4F44E325
:100B100050E023E330E00F2EFAE5EF2EFF24F02D16
:100B2000EC0EFD1E0F2EFCE5CF2EDD24F02DCC0E9D
:100B3000DD1E0E9455028DE16E968FAF6E97A096D6
:100B40007FAE6EAEA097A196BFAEA19780E391E075
:100B5000BE01635A7F4F44E350E023E330E00F2EA1
:100B6000FEE5EF2EFF24F02DEC0EFD1E0F2EF0E61D
:100B7000CF2EDD24F02DCC0EDD1E0E94550281E229
:100B8000A2968FAFA297A4967FAE6EAEA497A596BD
:100B9000BFAEA59789E391E0BE016F597F4F4AE34D
:100BA00050E029E330E00BE310E00F2EF2E6EF2EE9
:100BB000FF24F02DEC0EFD1E0F2EF4E6CF2EDD24CB
:100BC000F02DCC0EDD1E0E94550282E2A6968FAF5C
:100BD000A697A8965FAE4EAEA897A996BFAEA99766
:100BE00082E491E0BE016B597F4F4AE350E029E374
:100BF00030E00F2EF6E6EF2EFF24F02DEC0EFD1E5A
:100C00000F2EF8E6CF2EDD24F02DCC0EDD1E0E9437
:100C1000550283E2AA968FAFAA97AC963FAE2EAE4E
:100C2000AC97AD96BFAEAD978BE491E0BE0167592E
:100C30007F4F4AE350E029E330E00F2EFAE6EF2E33
:100C4000FF24F02DEC0EFD1E0F2EFCE6CF2EDD2432
:100C5000F02DCC0EDD1E0E94550284E2AE968FAFC1
:100C6000AE9784E090E0E0969FAF8EAFE097E1967C
:100C7000BFAEE19784E591E0BE0163597F4F4AE33F
:100C800050E029E330E00F2EFEE6EF2EFF24F02D9A
:100C9000EC0EFD1E0F2EF0E7CF2EDD24F02DCC0E36
:100CA000DD1E0E94550285E2E2968FAFE29783E057
:100CB00090E0E4969FAF8EAFE497E596BFAEE597E0
:100CC0008DE591E0BE016F587F4F4AE350E029E384
:100CD00030E00F2EF2E7EF2EFF24F02DEC0EFD1E7C
:100CE0000F2EF4E7CF2EDD24F02DCC0EDD1E0E945A
:100CF000550286E2E6968FAFE69782E090E0E896AE
:100D00009FAF8EAFE897E996BFAEE99786E691E090
:100D1000BE016B587F4F4AE350E029E330E00F2ECD
:100D2000F6E7EF2EFF24F02DEC0EFD1E0F2EF8E758
:100D3000CF2EDD24F02DCC0EDD1E0E94550287E261
:100D4000EA968FAFEA9781E090E0EC969FAF8EAF86
:100D5000EC97ED96BFAEED978FE691E0BE01675838
:100D60007F4F4AE350E029E330E00F2EFAE7EF2E01
:100D7000FF24F02DEC0EFD1E0F2EFCE7CF2EDD2400
:100D8000F02DCC0EDD1E0E94550288E2EE968FAF4C
:100D9000EE97C258DF4F19821882CE57D040C05804
:100DA000DF4FB882C058D04088E791E0BE01635859
:100DB0007F4F4AE350E029E330E00F2EFEE7EF2EAD
:100DC000FF24F02DEC0EFD1ECC24DD246894C7F822
:100DD000CC0EDD1E0E945502C058DF4F0FB6F894AE
:100DE000DEBF0FBECDBFDF91CF911F910F91FF905E
:100DF000EF90DF90CF90BF909F908F907F906F90FB
:100E00005F904F903F902F9008951F920F920FB6D2
:100E10000F9211248F938CB18093820181E0809393
:100E200081018F910F900FBE0F901F90189508951C
:100E3000FC0171836083DA018C918283089588E9D3
:100E40008AB986E880BD8FE589B9789408955D9B5D
:100E5000FECF8CB908950F931F93CF93DF9300D0EB
:100E6000CDB7DEB78C0180918301882389F1209171
:100E700084012223B9F0F801308190E08097FC01D1
:100E8000EE0FFF1F8E0F9F1FFC01E757FE4FE28101
:100E9000F0E0E21BF109EB57FE4F30832150209325
:100EA000840158C0F8019081282F30E02052304052
:100EB000F901EE0FFF1F2E0F3F1FF901E757FE4FFD
:100EC000E281F0E0EB57FE4F90830E94270742C07B
:100ED00086E18A83CE0102960E942F020E94CE01F3
:100EE000F801808190E08097FC01EE0FFF1FE80F72
:100EF000F91FE757FE4F2281222399F4FC01EE0FE0
:100F0000FF1F8E0F9F1FFC01E757FE4F0190F081DE
:100F1000E02D0995F80180810E9427071092830136
:100F200019C087E18983CE0101960E942F020E9499
:100F3000CE01F80180818093830190E08097FC01CD
:100F4000EE0FFF1F8E0F9F1FFC01E757FE4F8281A0
:100F5000809384010F900F90DF91CF911F910F919B
:100F60000895CF93DF930F92CDB7DEB786E69EE06C
:100F70000197F1F70000809181018823B9F38091F6
:100F80008201898310928101CE0101960E942B0774
:100F9000EDCF70E060527040DB01AA0FBB1FA60FBF
:100FA000B71FA757BE4FE82FF92F83E001900D928E
:100FB0008150E1F70895CF93DF930F92CDB7DEB75D
:100FC000CE0101960F90DF91CF910895CF93DF93DB
:100FD00000D000D0CDB7DEB7FB019081992321F07E
:100FE00080E08F5F8917E8F3CE0101960F900F9094
:100FF0000F900F90DF91CF910895EE0FFF1F059096
:0A100000F491E02D0994F894FFCF5D
:00000001FF
