:100000000C942B000C9453000C9453000C9453004C
:100010000C9453000C9453000C9453000C94530014
:100020000C9453000C9453000C9453000C94530004
:100030000C9453000C94D8070C9453000C94530068
:100040000C9453000C9453000C9453000C945300E4
:100050000C945300490311241FBECFE5D8E0DEBF46
:10006000CDBF10E0A0E6B0E0E0E1F1E102C0059014
:100070000D92A236B107D9F714E0A2E6B0E001C0B4
:100080001D92AC32B107E1F710E0C6E5D0E004C044
:100090002297FE010E948208C435D107C9F70E9449
:1000A000E3000C9486080C9400001F93CF93DF9319
:1000B000CDB7DEB728970FB6F894DEBF0FBECDBF21
:1000C000188618E01F83CE010896BE01695F7F4F36
:1000D0000E946908FC0180810E9409081E831D831B
:1000E000CE010696BE016B5F7F4F0E946908FC013E
:1000F00080810E94090880E18C831B83CE010496D5
:10010000BE016D5F7F4F0E946908FC0180810E94E3
:10011000090888E18A831983CE010296BE016F5FC8
:100120007F4F0E946908FC0180810E94090828967F
:100130000FB6F894DEBF0FBECDBFDF91CF911F91F8
:10014000089587B30E94090884B30E94090881B307
:100150000E94090888B30E94090885B30E94090813
:1001600082B30E94090886B30E94090883B30E94E3
:10017000090880B30E94090808951F93CF93DF9365
:1001800000D00F92CDB7DEB785E08B8380EC8A83F9
:1001900086E08983CE010396BE016E5F7F4FAE017C
:1001A0004F5F5F4F0E9437010E945E02192F0E942D
:1001B0000908812F0E9409080F900F900F90DF917E
:1001C000CF911F910895CF93DF93CDB7DEB72C97D2
:1001D0000FB6F894DEBF0FBECDBF0E94F20719869E
:1001E000CE010A9661EA70E0AE01475F5F4F0E9460
:1001F000EB07CE010A9660E20E944C081D82CE01F8
:1002000006966DEB70E0AE014B5F5F4F0E94EB070F
:10021000CE01069661E20E944C0884E08983CE01FB
:10022000029665E570E0AE014F5F5F4F0E94EB07FD
:10023000CE01029662E20E944C080E940D0880E006
:1002400090E02C960FB6F894DEBF0FBECDBFDF91C5
:10025000CF910895FC01DB018C918083DA018C91B0
:1002600081830895FC018FEF808381830895EF924D
:10027000FF921F93CF93DF9300D0CDB7DEB77C0101
:10028000FC018081883018F58770FB019081892BF3
:1002900080936200FA0180818093600018E21A83E3
:1002A000CE0102960E9402030E94E6021150103213
:1002B000B1F7F701908188E2891B8983CE0101960D
:1002C0000E9402030E94C90281E0809363000F90A4
:1002D0000F90DF91CF911F91FF90EF900895CF92F3
:1002E000DF92EF92FF920F931F93CF93DF9300D093
:1002F00000D00F92CDB7DEB76C017B01F801DA01B7
:100300009C91D6018C91982BDB014C9181E0842744
:10031000892BD9019C91892B8093620080818093E5
:10032000600018E21D83CE0105960E9402030E9420
:10033000E60211501032B1F7F7018081882341F5B0
:10034000D6018C91882319F0843011F511C088E210
:100350008C83CE0104960E9402030E94C90287E2A8
:100360008B83CE0103960E9402030E94C90210C033
:1003700086E28A83CE0102960E9402030E94C9028D
:1003800085E28983CE0101960E9402030E94C90280
:1003900081E0809363000F900F900F900F900F906B
:1003A000DF91CF911F910F91FF90EF90DF90CF9051
:1003B0000895CF92DF92EF92FF921F93CF93DF9336
:1003C00000D00F92CDB7DEB76C017B01FB018081BD
:1003D000813041F4F6018081883008F03FC01092EE
:1003E000620009C08230D1F5F60180818630B0F517
:1003F00088E080936200809162008061F7019081C3
:10040000892BFA019081892B80936200F901808108
:100410008093600018E21B83CE0103960E940203C2
:100420000E94E60211501032B1F718E2F601808105
:10043000F12FF81BFA83CE0102960E9402030E945C
:10044000C902F7018081181B1983CE0101960E9411
:1004500002030E94C90281E0809363000F900F9015
:100460000F90DF91CF911F91FF90EF90DF90CF9091
:100470000895FC01808180936200FB01808180935C
:10048000600081E08093630008953699FECF37982D
:100490008FEF9FEFA8E081509040A040E1F700C0AF
:1004A000000096B180916000892B806886B997B171
:1004B00080916200892B87B978940895CF93DF9358
:1004C00000D000D0CDB7DEB780916300882339F427
:1004D000CE0103960E9432018B819C810FC00E9445
:1004E0004502369A3699FECFCE01019664E270E05D
:1004F00045E250E00E942A0189819A810F900F9075
:100500000F900F90DF91CF910895FC01A181B281EE
:100510004C9121E030E0C901078002C0880F991F8B
:100520000A94E2F7842B8C93A581B6818C91078085
:1005300002C0220F331F0A94E2F7209528232C9340
:100540000895FC01A181B2814C9121E030E0C90104
:10055000078002C0880F991F0A94E2F7842B8C93BE
:10056000A581B6818C91078002C0220F331F0A94A7
:10057000E2F7282B2C930895FC01A381B4818C9180
:1005800090E0078002C0959587950A94E2F7817004
:100590000895FC01A181B2814C9121E030E0C901B4
:1005A000078002C0880F991F0A94E2F78095842380
:1005B0008C93A581B6818C91078002C0220F331FD6
:1005C0000A94E2F7209528232C930895FC01A18139
:1005D000B2814C9121E030E0C901078002C0880F50
:1005E000991F0A94E2F7809584238C93A581B681A4
:1005F0008C91078002C0220F331F0A94E2F7282B48
:100600002C930895FC01908180916400981749F023
:10061000EDE6F0E021E030E0A9018081891779F46E
:1006200002C040E050E0CA01880F991F880F991F4F
:10063000880F991F840F951F8C599F4F08952F5F26
:100640003F4F39962032310539F784E690E008951E
:10065000CF92DF92EF92FF920F931F93CF93DF938E
:10066000FC01E701DB018C91808352834183348359
:1006700023831683058388818783D6018C918087A5
:10068000DF91CF911F910F91FF90EF90DF90CF906E
:1006900008952F923F924F925F926F927F928F9226
:1006A0009F92BF92CF92DF92EF92FF920F931F9390
:1006B000CF93DF93CDB7DEB7C058D0400FB6F894D4
:1006C000DEBF0FBECDBFBB24B394B9821B821A829A
:1006D000BC820F2EF4E68F2EF0E09F2EF02DC40189
:1006E000BE016F5F7F4F47E350E026E330E008E351
:1006F00010E0EE24FF246894E1F8EC0EFD1ECC24FB
:10070000DD246894C2F8CC0EDD1E0E94280382E02E
:100710008D8381E090E09F838E83B886C401099623
:10072000BE016B5F7F4F47E350E026E330E00F2EC2
:10073000F6E0EF2EFF24F02DEC0EFD1ECC24DD2480
:100740006894C3F8CC0EDD1E0E94280383E08987DD
:1007500082E090E09B878A87BC86C4014296BE01F6
:10076000675F7F4F47E350E026E330E00F2EFAE06B
:10077000EF2EFF24F02DEC0EFD1E0F2EFCE0CF2EF1
:10078000DD24F02DCC0EDD1E0E94280384E08D8731
:1007900083E090E09F878E87B88AC4014B96BE01A4
:1007A000635F7F4F47E350E026E330E00F2EFEE02B
:1007B000EF2EFF24F02DEC0EFD1ECC24DD246894DA
:1007C000C4F8CC0EDD1E0E94280385E0898B84E0EE
:1007D00090E09B8B8A8BBC8AC4018496BE016F5EBD
:1007E0007F4F47E350E026E330E00F2EF2E1EF2E9B
:1007F000FF24F02DEC0EFD1E0F2EF4E1CF2EDD2494
:10080000F02DCC0EDD1E0E94280386E08D8B0F2E6E
:10081000F5E02F2E3324F02D3F8A2E8A188EC40146
:100820008D96BE016B5E7F4F47E350E026E330E0DC
:100830000F2EF6E1EF2EFF24F02DEC0EFD1E0F2EF5
:10084000F8E1CF2EDD24F02DCC0EDD1E0E94280312
:1008500087E0898F0F2EF6E04F2E5524F02D5B8E0A
:100860004A8E1C8EC401C696BE01675E7F4F47E369
:1008700050E026E330E00F2EFAE1EF2EFF24F02DBA
:10088000EC0EFD1E0F2EFCE1CF2EDD24F02DCC0E44
:10089000DD1E0E94280388E08D8F0F2EF7E06F2E5B
:1008A0007724F02D7F8E6E8E18A2C401CF96BE01E4
:1008B000635E7F4F47E350E026E330E00F2EFEE11A
:1008C000EF2EFF24F02DEC0EFD1ECC24DD246894C9
:1008D000C5F8CC0EDD1E0E9428038EE089A31BA262
:1008E0001AA21CA28CEA90E0BE016F5D7F4F41E32B
:1008F00050E020E330E002E310E00F2EF2E2EF2EB2
:10090000FF24F02DEC0EFD1E0F2EF4E2CF2EDD2481
:10091000F02DCC0EDD1E0E9428038FE08DA381E018
:1009200090E09FA38EA318A685EB90E0BE016B5DBF
:100930007F4F41E350E020E330E00F2EF6E2EF2E50
:10094000FF24F02DEC0EFD1E0F2EF8E2CF2EDD243D
:10095000F02DCC0EDD1E0E94280380E189A782E0E5
:1009600090E09BA78AA7BCA68EEB90E0BE01675DD6
:100970007F4F41E350E020E330E00F2EFAE2EF2E0C
:10098000FF24F02DEC0EFD1E0F2EFCE2CF2EDD24F9
:10099000F02DCC0EDD1E0E94280381E18DA783E09F
:1009A00090E09FA78EA7B8AA87EC90E0BE01635D98
:1009B0007F4F41E350E020E330E00F2EFEE2EF2EC8
:1009C000FF24F02DEC0EFD1E0F2EF0E3CF2EDD24C4
:1009D000F02DCC0EDD1E0E94280382E189AB84E05D
:1009E00090E09BAB8AABBCAA80ED90E0BE016F5C4F
:1009F0007F4F41E350E020E330E00F2EF2E3EF2E93
:100A0000FF24F02DEC0EFD1E0F2EF4E3CF2EDD247F
:100A1000F02DCC0EDD1E0E94280383E18DAB3FAA92
:100A20002EAAB8AE89ED90E0BE016B5C7F4F41E32A
:100A300050E020E330E00F2EF6E3EF2EFF24F02D00
:100A4000EC0EFD1E0F2EF8E3CF2EDD24F02DCC0E84
:100A5000DD1E0E94280384E189AF5BAE4AAEBCAEC6
:100A600082EE90E0BE01675C7F4F41E350E020E3FF
:100A700030E00F2EFAE3EF2EFF24F02DEC0EFD1EDA
:100A80000F2EFCE3CF2EDD24F02DCC0EDD1E0E94B8
:100A9000280385E18DAF7FAE6EAE2196BFAE219764
:100AA0008BEE90E0BE01635C7F4F41E350E020E3BA
:100AB00030E00F2EFEE3EF2EFF24F02DEC0EFD1E96
:100AC000CC24DD246894C6F8CC0EDD1E0E942803D9
:100AD00086E122968FAF229724961FAE1EAE2497F2
:100AE0002596BFAE259784EF90E0BE016F5B7F4FE8
:100AF00044E350E023E330E005E310E00F2EF2E49E
:100B0000EF2EFF24F02DEC0EFD1E0F2EF4E4CF2E61
:100B1000DD24F02DCC0EDD1E0E94280387E12696F1
:100B20008FAF269781E090E028969FAF8EAF2897F1
:100B30002996BFAE29978DEF90E0BE016B5B7F4F8A
:100B400044E350E023E330E00F2EF6E4EF2EFF24E1
:100B5000F02DEC0EFD1E0F2EF8E4CF2EDD24F02D2F
:100B6000CC0EDD1E0E94280388E12A968FAF2A97BB
:100B700082E090E02C969FAF8EAF2C972D96BFAE63
:100B80002D9786E091E0BE01675B7F4F44E350E024
:100B900023E330E00F2EFAE4EF2EFF24F02DEC0ECD
:100BA000FD1E0F2EFCE4CF2EDD24F02DCC0EDD1E1D
:100BB0000E94280389E12E968FAF2E9783E090E064
:100BC00060969FAF8EAF60976196BFAE61978FE0E2
:100BD00091E0BE01635B7F4F44E350E023E330E0EC
:100BE0000F2EFEE4EF2EFF24F02DEC0EFD1E0F2E37
:100BF000F0E5CF2EDD24F02DCC0EDD1E0E94280363
:100C00008AE162968FAF629784E090E064969FAF2E
:100C10008EAF64976596BFAE659788E191E0BE019F
:100C20006F5A7F4F44E350E023E330E00F2EF2E5AC
:100C3000EF2EFF24F02DEC0EFD1E0F2EF4E5CF2E2F
:100C4000DD24F02DCC0EDD1E0E9428038BE166967C
:100C50008FAF669768963FAE2EAE68976996BFAE27
:100C6000699781E291E0BE016B5A7F4F44E350E007
:100C700023E330E00F2EF6E5EF2EFF24F02DEC0EEF
:100C8000FD1E0F2EF8E5CF2EDD24F02DCC0EDD1E3F
:100C90000E9428038CE16A968FAF6A976C965FAECC
:100CA0004EAE6C976D96BFAE6D978AE291E0BE0135
:100CB000675A7F4F44E350E023E330E00F2EFAE51C
:100CC000EF2EFF24F02DEC0EFD1E0F2EFCE5CF2E97
:100CD000DD24F02DCC0EDD1E0E9428038DE16E96E2
:100CE0008FAF6E97A0967FAE6EAEA097A196BFAE67
:100CF000A19783E391E0BE01635A7F4F44E350E044
:100D000023E330E00F2EFEE5EF2EFF24F02DEC0E56
:100D1000FD1E0F2EF0E6CF2EDD24F02DCC0EDD1EB5
:100D20000E94280381E2A2968FAFA297A4967FAE7D
:100D30006EAEA497A596BFAEA5978CE391E0BE01D9
:100D40006F597F4F4AE350E029E330E00BE310E0B6
:100D50000F2EF2E6EF2EFF24F02DEC0EFD1E0F2ECF
:100D6000F4E6CF2EDD24F02DCC0EDD1E0E942803EC
:100D700082E2A6968FAFA697A8965FAE4EAEA897D2
:100D8000A996BFAEA99785E491E0BE016B597F4F4C
:100D90004AE350E029E330E00F2EF6E6EF2EFF2481
:100DA000F02DEC0EFD1E0F2EF8E6CF2EDD24F02DDB
:100DB000CC0EDD1E0E94280383E2AA968FAFAA976D
:100DC000AC963FAE2EAEAC97AD96BFAEAD978EE46F
:100DD00091E0BE0167597F4F4AE350E029E330E0DC
:100DE0000F2EFAE6EF2EFF24F02DEC0EFD1E0F2E37
:100DF000FCE6CF2EDD24F02DCC0EDD1E0E94280354
:100E000084E2AE968FAFAE9784E090E0E0969FAF1D
:100E10008EAFE097E196BFAEE19787E591E0BE0126
:100E200063597F4F4AE350E029E330E00F2EFEE69E
:100E3000EF2EFF24F02DEC0EFD1E0F2EF0E7CF2E2F
:100E4000DD24F02DCC0EDD1E0E94280385E2E29603
:100E50008FAFE29783E090E0E4969FAF8EAFE49788
:100E6000E596BFAEE59780E691E0BE016F587F4FF3
:100E70004AE350E029E330E00F2EF2E7EF2EFF24A3
:100E8000F02DEC0EFD1E0F2EF4E7CF2EDD24F02DFD
:100E9000CC0EDD1E0E94280386E2E6968FAFE69711
:100EA00082E090E0E8969FAF8EAFE897E996BFAEFC
:100EB000E99789E691E0BE016B587F4F4AE350E025
:100EC00029E330E00F2EF6E7EF2EFF24F02DEC0E95
:100ED000FD1E0F2EF8E7CF2EDD24F02DCC0EDD1EEB
:100EE0000E94280387E2EA968FAFEA9781E090E0BC
:100EF000EC969FAF8EAFEC97ED96BFAEED9782E785
:100F000091E0BE0167587F4F4AE350E029E330E0AB
:100F10000F2EFAE7EF2EFF24F02DEC0EFD1E0F2E04
:100F2000FCE7CF2EDD24F02DCC0EDD1E0E94280321
:100F300088E2EE968FAFEE97C258DF4F1982188283
:100F4000CE57D040C058DF4FB882C058D0408BE752
:100F500091E0BE0163587F4F4AE350E029E330E05F
:100F60000F2EFEE7EF2EFF24F02DEC0EFD1ECC24FD
:100F7000DD246894C7F8CC0EDD1E0E942803C058FB
:100F8000DF4F0FB6F894DEBF0FBECDBFDF91CF911C
:100F90001F910F91FF90EF90DF90CF90BF909F90A7
:100FA0008F907F906F905F904F903F902F9008951B
:100FB0001F920F920FB60F9211248F938CB18093D2
:100FC000850181E0809384018F910F900FBE0F9077
:100FD0001F9018950895FC0171836083DA018C914C
:100FE0008283089588E98AB986E880BD8FE589B94A
:100FF0007894089586E69EE00197F1F700008091CD
:101000008401882329F01092840185E891E00895F5
:10101000FFCF5D9BFECF8CB908950F2EFCE8CF2E3D
:10102000F1E0DF2EF02DD0E00E94FA077C01FC01F8
:10103000808190E08097FC01EE0FFF1FE80FF91F01
:10104000EC0DFD1D2281222391F0CD2F8F010E5F2B
:101050001F4F0E94FA07FC018081EC2FF0E0E85757
:10106000FE4F8083CF5FF8018081C81790F3F701AE
:10107000808190E080979C01220F331F820F931F85
:10108000F601E80FF91F0190F081E02D0995F701B5
:1010900080810E940908C8CF70E060527040DB0177
:1010A000AA0FBB1FA60FB71FA457BE4FE82FF92FDB
:1010B00083E001900D928150E1F70895CF93DF9383
:1010C0000F92CDB7DEB7CE0101960F90DF91CF9191
:1010D0000895CF93DF9300D000D0CDB7DEB7FB01EA
:1010E0009081992321F080E08F5F8917E8F3CE018A
:1010F00001960F900F900F900F90DF91CF91089570
:10110000EE0FFF1F0590F491E02D0994F894FFCFA6
:021110000600D7
:00000001FF
