:1000000012C02CC02BC02AC029C028C027C026C0BF
:1000100025C024C023C063C021C020C01FC01EC093
:100020001DC01CC01BC011241FBECFE5D4E0DEBF25
:10003000CDBF10E0A0E6B0E0E4EBF1E002C0059037
:100040000D92A036B107D9F712E0A0E6B0E001C0EA
:100050001D92A236B107E1F79ED0AAC0D1CF87B3D7
:100060008093620084B38093630081B380936400C3
:1000700088B38093650085B38093660082B38093D4
:10008000670086B38093680083B38093690080B370
:1000900080936A0089E0089587B38093620084B3F7
:1000A0008093630081B38093640088B3809365007C
:1000B00085B38093660082B38093670086B3809394
:1000C000680083B38093690080B380936A008DE0F9
:1000D00080936B008AE080936C008BE008951F9200
:1000E0000F920FB60F9211248F938CB18093610001
:1000F00081E0809360008F910F900FBE0F901F9052
:10010000189588E98AB986E880BD87E489B978942A
:1001100008955D9BFECF8CB9089581E59BE0019722
:10012000F1F700C00000809160008823B1F3C09116
:10013000610010926000C03280F3EC2FF0E0EE0F0F
:10014000FF1FEE59FF4F0190F081E02D309729F30A
:100150000995082F8C2FDDDFC2E6D0E010E003C048
:100160008991D7DF1F5F1017D9F7D7CFE62FF0E0BF
:10017000EE0FFF1FEE59FF4F918380830895FC011E
:1001800006C0A62FB0E0AE59BF4F8C936F5F819130
:100190008823B9F70895B5DF8FE290E060E2E6DFEB
:1001A0008CE490E061E2E2DFB8DF80E090E0089567
:0401B000F894FFCFF1
:00000001FF
