:100000000C942B000C9453000C9453000C9453004C
:100010000C9453000C9453000C9453000C94530014
:100020000C9453000C9453000C9453000C94530004
:100030000C9453000C948E060C9453000C945300B3
:100040000C9453000C9453000C9453000C945300E4
:100050000C945300FF0111241FBECFE5D8E0DEBF92
:10006000CDBF10E0A0E6B0E0E6EEFDE002C00590F6
:100070000D92A036B107D9F713E0A0E6B0E001C0B9
:100080001D92A334B107E1F710E0C6E5D0E004C04B
:100090002297FE010E94ED06C435D107C9F70E94E0
:1000A000A0000C94F1060C9400001F93CF93DF93F3
:1000B00000D00F92CDB7DEB780EC8B8385E08A83CA
:1000C00086E08983CE010396BE016E5F7F4FAE014D
:1000D0004F5F5F4F0E94DE000E941601192F0E94A1
:1000E000A806812F0E94A8060F900F900F90DF9115
:1000F000CF911F9108958AB30E94A80687B30E94EA
:10010000A80684B30E94A80681B30E94A8068BB3F8
:100110000E94A80688B30E94A80685B30E94A8067C
:1001200082B30E94A80689B30E94A80686B30E94E3
:10013000A80683B30E94A80680B30E94A80608956B
:1001400084B38F6084BB0E94A0068BE790E060E2DE
:100150000E94E20685E590E061E20E94E2060E94CC
:10016000AC0680E090E00895FC01DB018C91808377
:10017000DA018C9181830895FC018FEF8083818364
:10018000089520916000222361F03699FECF3798C0
:100190002FEF3FEF48E0215030404040E1F700C0F2
:1001A000000026B12068FB013081232B26B927B13E
:1001B000FC018081822B87B978940895EF92FF9299
:1001C0001F93CF93DF9300D00F92CDB7DEB77B01A3
:1001D000BA01F70120812F70FC019081822F892BB9
:1001E0008B83CE0103960E94C10011E21A83CE01D7
:1001F00002960E94B8010E949C011F5F1932B1F75C
:10020000F70180818F5D8983CE0101960E94B8013C
:100210000E947F0181E0809360000F900F900F900B
:10022000DF91CF911F91FF90EF900895CF93DF93CF
:1002300000D000D0CDB7DEB780916000882339F4BC
:10024000CE0103960E94BC008B819C810DC0369A22
:100250003699FECFCE01019664E270E045E250E0AF
:100260000E94B40089819A810F900F900F900F9097
:10027000DF91CF910895FC01A181B2814C9121E0E1
:1002800030E0C901078002C0880F991F0A94E2F785
:10029000842B8C93A581B6818C91078002C0220F9C
:1002A000331F0A94E2F7209528232C930895FC012C
:1002B000A181B2814C9121E030E0C901078002C0E8
:1002C000880F991F0A94E2F7842B8C93A581B6813D
:1002D0008C91078002C0220F331F0A94E2F7282B6B
:1002E0002C930895FC01A381B4818C9190E0078048
:1002F00002C0959587950A94E2F781700895FC01F4
:10030000A181B2814C9121E030E0C901078002C097
:10031000880F991F0A94E2F7809584238C93A58116
:10032000B6818C91078002C0220F331F0A94E2F736
:10033000209528232C930895FC01A181B2814C9132
:1003400021E030E0C901078002C0880F991F0A949C
:10035000E2F7809584238C93A581B6818C910780E8
:1003600002C0220F331F0A94E2F7282B2C93089522
:10037000FC01908180916100981749F0EAE6F0E075
:1003800021E030E0A9018081891779F402C040E0C2
:1003900050E0CA01880F991F880F991F880F991F75
:1003A000840F951F8F599F4F08952F5F3F4F3996A8
:1003B0002032310539F781E690E00895CF92DF923F
:1003C000EF92FF920F931F93CF93DF93FC01E7010E
:1003D000DB018C9180835283418334832383168392
:1003E000058388818783D6018C918087DF91CF91A7
:1003F0001F910F91FF90EF90DF90CF9008952F9273
:100400003F924F925F926F927F928F929F92BF9294
:10041000CF92DF92EF92FF920F931F93CF93DF93D0
:10042000CDB7DEB7C058D0400FB6F894DEBF0FBED0
:10043000CDBFBB24B394B9821B821A82BC820F2E1B
:10044000F1E68F2EF0E09F2EF02DC401BE016F5F0C
:100450007F4F47E350E026E330E008E310E0EE246E
:10046000FF246894E1F8EC0EFD1ECC24DD24689492
:10047000C2F8CC0EDD1E0E94DE0182E08D8381E099
:1004800090E09F838E83B886C4010996BE016B5F9E
:100490007F4F47E350E026E330E00F2EF6E0EF2EEB
:1004A000FF24F02DEC0EFD1ECC24DD246894C3F84F
:1004B000CC0EDD1E0E94DE0183E0898782E090E0A1
:1004C0009B878A87BC86C4014296BE01675F7F4FC7
:1004D00047E350E026E330E00F2EFAE0EF2EFF2452
:1004E000F02DEC0EFD1E0F2EFCE0CF2EDD24F02DA6
:1004F000CC0EDD1E0E94DE0184E08D8783E090E05B
:100500009F878E87B88AC4014B96BE01635F7F4F79
:1005100047E350E026E330E00F2EFEE0EF2EFF240D
:10052000F02DEC0EFD1ECC24DD246894C4F8CC0E16
:10053000DD1E0E94DE0185E0898B84E090E09B8BCC
:100540008A8BBC8AC4018496BE016F5E7F4F47E3ED
:1005500050E026E330E00F2EF2E1EF2EFF24F02DE5
:10056000EC0EFD1E0F2EF4E1CF2EDD24F02DCC0E6F
:10057000DD1E0E94DE0186E08D8B0F2EF5E02F2E12
:100580003324F02D3F8A2E8A188EC4018D96BE0129
:100590006B5E7F4F47E350E026E330E00F2EF6E13D
:1005A000EF2EFF24F02DEC0EFD1E0F2EF8E1CF2EC6
:1005B000DD24F02DCC0EDD1E0E94DE0187E0898F48
:1005C0000F2EF6E04F2E5524F02D5B8E4A8E1C8E9A
:1005D000C401C696BE01675E7F4F47E350E026E345
:1005E00030E00F2EFAE1EF2EFF24F02DEC0EFD1E71
:1005F0000F2EFCE1CF2EDD24F02DCC0EDD1E0E944F
:10060000DE0188E08D8F0F2EF7E06F2E7724F02D1E
:100610007F8E6E8E18A2C401CF96BE01635E7F4F9F
:1006200047E350E026E330E00F2EFEE1EF2EFF24FB
:10063000F02DEC0EFD1ECC24DD246894C5F8CC0E04
:10064000DD1E0E94DE018EE089A31BA21AA21CA25D
:1006500089EA90E0BE016F5D7F4F41E350E020E307
:1006600030E002E310E00F2EF2E2EF2EFF24F02D37
:10067000EC0EFD1E0F2EF4E2CF2EDD24F02DCC0E5D
:10068000DD1E0E94DE018FE08DA381E090E09FA33C
:100690008EA318A682EB90E0BE016B5D7F4F41E315
:1006A00050E020E330E00F2EF6E2EF2EFF24F02D95
:1006B000EC0EFD1E0F2EF8E2CF2EDD24F02DCC0E19
:1006C000DD1E0E94DE0180E189A782E090E09BA709
:1006D0008AA7BCA68BEB90E0BE01675D7F4F41E32C
:1006E00050E020E330E00F2EFAE2EF2EFF24F02D51
:1006F000EC0EFD1E0F2EFCE2CF2EDD24F02DCC0ED5
:10070000DD1E0E94DE0181E18DA783E090E09FA7BE
:100710008EA7B8AA84EC90E0BE01635D7F4F41E3F1
:1007200050E020E330E00F2EFEE2EF2EFF24F02D0C
:10073000EC0EFD1E0F2EF0E3CF2EDD24F02DCC0E9F
:10074000DD1E0E94DE0182E189AB84E090E09BAB7C
:100750008AABBCAA8DEC90E0BE016F5C7F4F41E399
:1007600050E020E330E00F2EF2E3EF2EFF24F02DD7
:10077000EC0EFD1E0F2EF4E3CF2EDD24F02DCC0E5B
:10078000DD1E0E94DE0183E18DAB3FAA2EAAB8AE2A
:1007900086ED90E0BE016B5C7F4F41E350E020E3CB
:1007A00030E00F2EF6E3EF2EFF24F02DEC0EFD1EB1
:1007B0000F2EF8E3CF2EDD24F02DCC0EDD1E0E948F
:1007C000DE0184E189AF5BAE4AAEBCAE8FED90E056
:1007D000BE01675C7F4F41E350E020E330E00F2E25
:1007E000FAE3EF2EFF24F02DEC0EFD1E0F2EFCE39E
:1007F000CF2EDD24F02DCC0EDD1E0E94DE0185E122
:100800008DAF7FAE6EAE2196BFAE219788EE90E0A1
:10081000BE01635C7F4F41E350E020E330E00F2EE8
:10082000FEE3EF2EFF24F02DEC0EFD1ECC24DD2484
:100830006894C6F8CC0EDD1E0E94DE0186E1229689
:100840008FAF229724961FAE1EAE24972596BFAE7B
:10085000259781EF90E0BE016F5B7F4F44E350E04E
:1008600023E330E005E310E00F2EF2E4EF2EFF2447
:10087000F02DEC0EFD1E0F2EF4E4CF2EDD24F02D16
:10088000CC0EDD1E0E94DE0187E126968FAF2697F3
:1008900081E090E028969FAF8EAF28972996BFAE53
:1008A00029978AEF90E0BE016B5B7F4F44E350E0F5
:1008B00023E330E00F2EF6E4EF2EFF24F02DEC0EB4
:1008C000FD1E0F2EF8E4CF2EDD24F02DCC0EDD1E04
:1008D0000E94DE0188E12A968FAF2A9782E090E09D
:1008E0002C969FAF8EAF2C972D96BFAE2D9783E0A1
:1008F00091E0BE01675B7F4F44E350E023E330E0CB
:100900000F2EFAE4EF2EFF24F02DEC0EFD1E0F2E1D
:10091000FCE4CF2EDD24F02DCC0EDD1E0E94DE0186
:1009200089E12E968FAF2E9783E090E060969FAF7F
:100930008EAF60976196BFAE61978CE091E0BE018B
:10094000635B7F4F44E350E023E330E00F2EFEE48F
:10095000EF2EFF24F02DEC0EFD1E0F2EF0E5CF2E16
:10096000DD24F02DCC0EDD1E0E94DE018AE16296B0
:100970008FAF629784E090E064969FAF8EAF6497EC
:100980006596BFAE659785E191E0BE016F5A7F4FD6
:1009900044E350E023E330E00F2EF2E5EF2EFF2496
:1009A000F02DEC0EFD1E0F2EF4E5CF2EDD24F02DE4
:1009B000CC0EDD1E0E94DE018BE166968FAF66973E
:1009C00068963FAE2EAE68976996BFAE69978EE186
:1009D00091E0BE016B5A7F4F44E350E023E330E0E7
:1009E0000F2EF6E5EF2EFF24F02DEC0EFD1E0F2E40
:1009F000F8E5CF2EDD24F02DCC0EDD1E0E94DE01A9
:100A00008CE16A968FAF6A976C965FAE4EAE6C972C
:100A10006D96BFAE6D9787E291E0BE01675A7F4F3A
:100A200044E350E023E330E00F2EFAE5EF2EFF24FD
:100A3000F02DEC0EFD1E0F2EFCE5CF2EDD24F02D4B
:100A4000CC0EDD1E0E94DE018DE16E968FAF6E979B
:100A5000A0967FAE6EAEA097A196BFAEA19780E3A1
:100A600091E0BE01635A7F4F44E350E023E330E05E
:100A70000F2EFEE5EF2EFF24F02DEC0EFD1E0F2EA7
:100A8000F0E6CF2EDD24F02DCC0EDD1E0E94DE011F
:100A900081E2A2968FAFA297A4967FAE6EAEA49786
:100AA000A596BFAEA59789E391E0BE016F597F4F30
:100AB0004AE350E029E330E00BE310E00F2EF2E6CA
:100AC000EF2EFF24F02DEC0EFD1E0F2EF4E6CF2EA0
:100AD000DD24F02DCC0EDD1E0E94DE0182E2A69602
:100AE0008FAFA697A8965FAE4EAEA897A996BFAE59
:100AF000A99782E491E0BE016B597F4F4AE350E031
:100B000029E330E00F2EF6E6EF2EFF24F02DEC0E59
:100B1000FD1E0F2EF8E6CF2EDD24F02DCC0EDD1EAF
:100B20000E94DE0183E2AA968FAFAA97AC963FAEF1
:100B30002EAEAC97AD96BFAEAD978BE491E0BE0103
:100B400067597F4F4AE350E029E330E00F2EFAE681
:100B5000EF2EFF24F02DEC0EFD1E0F2EFCE6CF2E07
:100B6000DD24F02DCC0EDD1E0E94DE0184E2AE9667
:100B70008FAFAE9784E090E0E0969FAF8EAFE097A6
:100B8000E196BFAEE19784E591E0BE0163597F4FE6
:100B90004AE350E029E330E00F2EFEE6EF2EFF247B
:100BA000F02DEC0EFD1E0F2EF0E7CF2EDD24F02DE4
:100BB000CC0EDD1E0E94DE0185E2E2968FAFE29749
:100BC00083E090E0E4969FAF8EAFE497E596BFAEEA
:100BD000E5978DE591E0BE016F587F4F4AE350E005
:100BE00029E330E00F2EF2E7EF2EFF24F02DEC0E7C
:100BF000FD1E0F2EF4E7CF2EDD24F02DCC0EDD1ED2
:100C00000E94DE0186E2E6968FAFE69782E090E0F2
:100C1000E8969FAF8EAFE897E996BFAEE99786E674
:100C200091E0BE016B587F4F4AE350E029E330E08A
:100C30000F2EF6E7EF2EFF24F02DEC0EFD1E0F2EEB
:100C4000F8E7CF2EDD24F02DCC0EDD1E0E94DE0154
:100C500087E2EA968FAFEA9781E090E0EC969FAF4B
:100C60008EAFEC97ED96BFAEED978FE691E0BE01AB
:100C700067587F4F4AE350E029E330E00F2EFAE750
:100C8000EF2EFF24F02DEC0EFD1E0F2EFCE7CF2ED5
:100C9000DD24F02DCC0EDD1E0E94DE0188E2EE96F2
:100CA0008FAFEE97C258DF4F19821882CE57D040CF
:100CB000C058DF4FB882C058D04088E791E0BE01ED
:100CC00063587F4F4AE350E029E330E00F2EFEE700
:100CD000EF2EFF24F02DEC0EFD1ECC24DD246894B5
:100CE000C7F8CC0EDD1E0E94DE01C058DF4F0FB6E4
:100CF000F894DEBF0FBECDBFDF91CF911F910F9152
:100D0000FF90EF90DF90CF90BF909F908F907F905B
:100D10006F905F904F903F902F9008951F920F9289
:100D20000FB60F9211248F938CB18093820181E0D2
:100D3000809381018F910F900FBE0F901F90189597
:100D400088E98AB986E880BD86E089B978940895F3
:100D50005D9BFECF8CB9089503E811E0A89A8FEF50
:100D60009FEFACE281509040A040E1F700C000004E
:100D7000A8988FEF9FEFACE281509040A040E1F740
:100D800000C00000A6E6BEE01197F1F700008091D8
:100D90008101882319F3C091820110928101C03230
:100DA000E8F2EC2FF0E0B097EE0FFF1FE00FF11F1D
:100DB0000190F081E02D309789F209958C2F0E94E7
:100DC000A806CCCFE62FF0E0EE0FFF1FED5BFE4F45
:100DD000918380830895EE0FFF1F0590F491E02D1D
:060DE0000994F894FFCF16
:00000001FF
