S00F00006B616C6F7269652E737265632E
S113000013C02CC02BC02AC029C028C027C026C0BA
S113001025C024C023C039C321C020C01FC01EC0B6
S11300201DC01CC01BC04A0111241FBECFE5D4E073
S1130030DEBFCDBF23E0A0E6B0E001C01D92A23335
S1130040B207E1F710E0C8E2D0E003C02297FE0156
S11300506FD3C632D107D1F740D06EC3D1CF87B3A7
S11300608093320184B38093330181B3809334014C
S113007088B38093350185B38093360182B380932E
S1130080370186B38093380183B38093390180B3F9
S113009080933A0189E00895CF93DF9300D01F92B3
S11300A0CDB7DEB786E0898385E08A8380EC8B83D5
S11300B0AE014F5F5F4FBE016E5F7F4FCE0103966F
S11300C034D063D0809332019093330182E00F9057
S11300D00F900F90DF91CF910895E9D260E28FE203
S11300E090E01BD361E28CE490E017D3ECD280E083
S11300F090E0089520916000222361F03499FECFAE
S113010037982FE333E147E0215030404040E1F796
S113011000C00000FB012081206826B927B1FC0142
S11301208081282B27B9789408950F931F93CF9338
S1130130DF9300D0CDB7DEB78B01FB0120812F7098
S1130140FC018081282B2983BA01CE010196D2DFDC
S113015027E12983CE0101962A8381D06DD02A819B
S11301602F5F2D31B1F7F8018081895E8983CE013B
S1130170019675D04ED081E0809360000F900F906F
S1130180DF91CF911F910F910895809160008111AB
S113019003C08FEF9FEF0895369A3499FECF84B150
S11301A095B10895FC01A181B2814C9181E090E068
S11301B09C01078002C0220F331F0A94E2F7422BEE
S11301C04C93A581B6812C91078002C0880F991F9A
S11301D00A94E2F7809582238C930895FC01A1810F
S11301E0B2814C9181E090E09C01078002C0220F13
S11301F0331F0A94E2F7422B4C93A581B6812C91CC
S1130200078002C0880F991F0A94E2F7282B2C93C9
S11302100895DC011196ED91FC911297408121E043
S113022030E017960C9002C0220F331F0A94E2F7B5
S1130230209524232083B6CFDC011196ED91FC9107
S11302401297408121E030E017960C9002C0220FF3
S1130250331F0A94E2F7209524232083BFCFFC01A7
S11302608081E1E6F0E020E030E09081891309C06C
S113027049E0429FC001439F900D11248F599F4F25
S113028008952F5F3F4F39962731310571F781E685
S113029090E008956F927F928F929F92AF92BF9257
S11302A0CF92DF92EF92FF920F931F93CF93DF933E
S11302B0DD24D394D092610084E3E82EF12CF092F3
S11302C06300E092620003E310E010936500009382
S11302D06400C5E3D0E0D0936700C093660096E065
S11302E0892E809268001092690022E0922E9092EA
S11302F06A00A1E3B0E0B0936C00A0936B00E0E36C
S1130300F0E0F0936E00E0936D0062E370E07093B0
S1130310700060936F00109271001092720033E0CD
S1130320A32EA0927300B0937500A0937400F09371
S11303307700E09376007093790060937800D09210
S11303407A0010927B0044E0B42EB0927C00B0930B
S11303507E00A0937D00F0938000E0937F00709373
S113036082006093810090928300D092840055E0D3
S1130370C52EC0928500B0938700A0938600F093A9
S11303808900E093880070938B0060938A00A092A8
S11303908C00D0928D0080928E00B0939000A09338
S11303A08F00F0939200E093910070939400609317
S11303B09300B0929500D092960089E080939700C4
S11303C047E350E0509399004093980026E330E0CF
S11303D030939B0020939A0088E390E090939D00D3
S11303E080939C0080929E00D0929F000F2EFAE092
S11303F07F2EF02D7092A0005093A2004093A10094
S11304003093A4002093A3009093A6008093A500AA
S11304100F2EF7E07F2EF02D7092A700D092A80047
S11304200F2EFBE06F2EF02D6092A900B093AB006D
S1130430A093AA00F093AD00E093AC007093AF00DA
S11304406093AE00C092B000D092B1000F2EFCE0D9
S11304506F2EF02D6092B200B093B400A093B3005D
S1130460F093B600E093B5007093B8006093B700C2
S11304708092B900D092BA000F2EFDE08F2EF02D9D
S11304808092BB00B093BD00A093BC00F093BF006A
S1130490E093BE007093C1006093C0007092C200EC
S11304A0D092C3006EE06093C4005093C6004093A2
S11304B0C5003093C8002093C7009093CA0080936E
S11304C0C9001092CB00D092CC006FE06093CD00B5
S11304D05093CF004093CE003093D1002093D000AE
S11304E09093D3008093D200D092D400D092D500C0
S11304F060E16093D6005093D8004093D7003093C6
S1130500DA002093D9009093DC008093DB00909272
S1130510DD00D092DE0061E16093DF005093E100E2
S11305204093E0003093E3002093E2009093E500D1
S11305308093E400A092E6001092E70062E16093E9
S1130540E8005093EA004093E9003093EC002093D4
S1130550EB009093EE008093ED00B092EF001092C8
S1130560F00063E16093F1005093F3004093F200D4
S11305703093F5002093F4009093F7008093F600F5
S1130580C092F8001092F90087E18093FA00F0928B
S1130590FC00E092FB001093FE000093FD00D0935A
S11305A00001C093FF0010920101D092020188E182
S11305B080930301F0920501E09204011093070176
S11305C000930601D0930901C0930801D0920A0157
S11305D0D0920B0189E180930C01F0920E01E0921C
S11305E00D011093100100930F01D0931201C093D9
S11305F0110190921301D09214018AE180931501A4
S1130600F0921701E092160110931901009318015A
S1130610D0931B01C0931A01A0921C01D0921D011A
S11306208BE180931E01F0922001E0921F01109350
S1130630220100932101D0932401C0932301B0929D
S11306402501D09226018CE180932701F0922901A3
S1130650E092280110932B0100932A01D0932D01DD
S1130660C0932C01C0922E01D0922F01DF91CF9123
S11306701F910F91FF90EF90DF90CF90BF90AF90BC
S11306809F908F907F906F9008951F920F920FB656
S11306900F9211248F938CB18093310181E0809368
S11306A030018F910F900FBE0F901F90189588E91D
S11306B08AB986E880BD87E489B9789408955D9BFA
S11306C0FECF8CB9089502E311E081E59BE0019728
S11306D0F1F700C00000809130018823B1F3C0918C
S11306E0310110923001C03280F3EC2FF0E0EE0FB4
S11306F0FF1FEE5CFE4F0190F081E02D309729F34F
S11307000995F82E8C2FDBDFC2E3D1E08C2F801B00
S11307108F15D8F68991D3DFF9CFE62FF0E0EE0FED
S1130720FF1FEE5CFE4F918380830895EE0FFF1F41
S10F07300590F491E02D0994F894FFCF9B
S9030000FC
