S00F00006B616C6F7269652E737265632E
S113000013C037C036C035C034C033C032C031C06D
S113001030C02FC02EC089C12CC02BC02AC029C01B
S113002028C027C026C0EE0111241FBECFE5D4E0AE
S1130030DEBFCDBF10E0A0E6B0E0E8EFF7E002C01D
S113004005900D92A036B107D9F712E0A0E6B0E012
S113005001C01D92A23FB107E1F710E0C8E2D0E071
S113006003C02297FE01C2D3C632D107D1F7A9D16A
S1130070C1C3C6CFCF93DF9300D000D0CDB7DEB7D6
S113008080EC8B8385E08A8386E08983CE010396A6
S1130090BE016E5F7F4FAE014F5F5F4F4AD07CD091
S11300A09C835DD19C81892F5AD10F900F900F9022
S11300B00F90DF91CF91089587B351D184B34FD17D
S11300C081B34DD188B34BD185B349D182B347D1E4
S11300D086B345D183B343D180B341D10895FC01A4
S11300E0DB018C918083DA018C9181830895FC017A
S11300F08FEF80838183089520916000222361F033
S11301003699FECF37982FE333E147E02150304052
S11301104040E1F700C0000026B12068FB013081B7
S1130120232B26B927B1FC018081282B27B9789489
S113013008950F931F93CF93DF9300D000D0CDB7D2
S1130140DEB78B01BA01F80120812F70FC01808198
S1130150282B2B83CE010396CFDF27E12A83CE0100
S113016002962C83A4D087D02C812F5F2D31B1F738
S1130170F8018081895E8983CE01019698D05ED092
S113018081E0809360000F900F900F900F90DF91AB
S1130190CF911F910F91089580916000882319F4E5
S11301A08FEF9FEF0895369A3699FECF84B195B1BB
S11301B00895FC01A181B2814C9121E030E0C90194
S11301C0078002C0880F991F0A94E2F7482B4C93CA
S11301D0A581B6818C91078002C0220F331F0A9437
S11301E0E2F7209528232C930895FC01A181B28184
S11301F04C9121E030E0C901078002C0880F991FAB
S11302000A94E2F7482B4C93A581B6818C91078020
S113021002C0220F331F0A94E2F7822B8C930895B5
S1130220FC01A381B4812C9130E0078002C0359594
S113023027950A94E2F7822F81700895FC01A18129
S1130240B2814C9121E030E0C901078002C0880FDF
S1130250991F0A94E2F7809584238C93A581B68133
S11302608C91078002C0220F331F0A94E2F7209575
S113027028232C930895FC01A181B2814C9121E0A3
S113028030E0C901078002C0880F991F0A94E2F781
S1130290809584238C93A581B6818C91078002C0BC
S11302A0220F331F0A94E2F7822B8C930895FC01EA
S11302B08081E1E6F0E020E030E09081891759F494
S11302C0C90143E0880F991F4A95E1F7820F931FF4
S11302D08F599F4F08952F5F3F4F3996273131052E
S11302E061F781E690E00895CF92DF92EF92FF925A
S11302F00F931F93CF93DF93FC01E701DB018C91F4
S113030080835283418334832383168305838881C6
S11303108783D6018C918087DF91CF911F910F91B4
S1130320FF90EF90DF90CF9008951F920F920FB639
S11303300F9211248F938CB18093310181E08093CB
S113034030018F910F900FBE0F901F90189588E980
S11303508AB986E880BD87E489B9789408955D9B5D
S1130360FECF8CB90895CF93DF930F92CDB7DEB74C
S113037081E59BE00197F1F700C000008091300116
S11303808823B1F38091310110923001803280F3DF
S1130390E82FF0E0EE0FFF1FEE50FF4F0190F081C9
S11303A0E02D309729F3898309958981D8DFE0CF3F
S11303B0E62FF0E0EE0FFF1FEE50FF4F9183808396
S11303C00895C5DF8CE590E060E2F2DF8AE390E017
S11303D061E2EEDFC8DF80E090E008952F923F9263
S11303E05F926F927F928F929F92AF92BF92CF92C1
S11303F0DF92EF92FF920F931F93CF93DF9351E617
S1130400652E50E0752EE1E0E093610004E310E016
S1130410109363000093620063E3E62EF12CF092E4
S11304206500E092640075E3C72ED12CD09267007A
S1130430C0926600F6E0F093680010926900A2E0B2
S1130440BA2EB0926A0081E390E090936C0080939E
S11304506B0020E330E030936E0020936D0042E3A4
S113046050E05093700040936F001092710010920E
S11304707200B3E0AB2EA09273009093750080934A
S11304807400309377002093760050937900409362
S11304907800E0937A0010927B00C4E09C2E909246
S11304A07C0090937E0080937D00309380002093A5
S11304B07F005093820040938100B0928300E093C8
S11304C08400D5E08D2E80928500909387008093E0
S11304D08600309389002093880050938B004093CA
S11304E08A00A0928C00E0938D00F0938E0090938C
S11304F0900080938F00309392002093910050934A
S113050094004093930090929500E093960069E0E4
S11305106093970067E370E070939900609398008C
S1130520A6E32A2E312C30929B0020929A00C8E335
S1130530D0E0D0939D00C0939C00D301DD96FC9342
S1130540DD97DE96EC93DE970F2EFAE05F2EF02D0A
S1130550DF965C92DF977093A2006093A1003092C3
S1130560A4002092A300D093A600C093A5000F2E50
S1130570F7E07F2EF02D7092A700E093A8000F2ED5
S1130580FBE06F2EF02D6092A9009093AB00809356
S1130590AA003093AD002093AC005093AF00409379
S11305A0AE008092B000E093B1000F2EFCE06F2EFD
S11305B0F02D6092B2009093B4008093B300309316
S11305C0B6002093B5005093B8004093B700F09361
S11305D0B900E093BA00FDE0F093BB009093BD0036
S11305E08093BC003093BF002093BE005093C100A1
S11305F04093C0007092C200E093C3008EE08093E9
S1130600C4007093C6006093C5003092C800209265
S1130610C700D093CA00C093C9001092CB00E093E6
S1130620CC008FE08093CD007093CF006093CE0018
S11306303092D1002092D000D093D300C093D20046
S1130640E093D400E093D50080E18093D6007093CA
S1130650D8006093D7003092DA002092D900D0936A
S1130660DC00C093DB00B092DD00E093DE0081E1AA
S11306708093DF007093E1006093E0003092E30028
S11306802092E200D093E500C093E400A092E6003B
S11306901092E70082E18093E8007093EA0060938F
S11306A0E9003092EC002092EB00D093EE00C0936E
S11306B0ED009092EF001092F00083E18093F1003E
S11306C07093F3006093F2003092F5002092F400EE
S11306D0D093F700C093F6008092F8001092F900CE
S11306E087E18093FA001093FC000093FB00F092E2
S11306F0FE00E092FD00D0920001C092FF00109233
S11307000101E093020188E1809303011093050144
S113071000930401F0920701E0920601D0920901CE
S1130720C0920801E0930A01E0930B0189E18093F0
S11307300C0110930E0100930D01F0921001E09250
S11307400F01D0921201C0921101B0921301E093F3
S113075014018AE180931501109317010093160187
S1130760F0921901E0921801D0921B01C0921A0173
S1130770A0921C01E0931D018BE180931E01109354
S1130780200100931F01F0922201E0922101D092F6
S11307902401C092230190922501E09326018CE16B
S11307A0809327011093290100932801F0922B01D3
S11307B0E0922A01D0922D01C0922C0180922E0148
S11307C0E0932F01DF91CF911F910F91FF90EF9054
S11307D0DF90CF90BF90AF909F908F907F906F905D
S11307E05F903F902F900895EE0FFF1F0590F491B6
S10B07F0E02D0994F894FFCFF9
S9030000FC
