:1000000013C02CC02BC02AC029C028C027C026C0BE
:1000100025C024C023C095C221C020C01FC01EC05F
:100020001DC01CC01BC07C0011241FBECFE5D4E046
:10003000DEBFCDBF24E0A0E6B0E001C01D92AE352A
:10004000B207E1F710E0C8E2D0E003C02297FE015A
:10005000E9D2C632D107D1F742D0E8C2D1CF87B3B7
:1000600080935C0184B380935D0181B380935E01D2
:1000700088B380935F0185B38093600182B38093DE
:10008000610186B38093620183B38093630180B37F
:100090008093640189E0089587B380935C0184B301
:1000A00080935D0181B380935E0188B380935F018B
:1000B00085B38093600182B38093610186B380939E
:1000C000620183B38093630180B3809364018DE008
:1000D000809365018AE0809366018BE0089558D291
:1000E00060E28FE290E093D261E28CE490E08FD204
:1000F0005BD280E090E008952F923F925F926F92E2
:100100007F928F929F92AF92BF92CF92DF92EF92A7
:10011000FF920F931F93CF93DF93E0E6F0E084E329
:1001200090E09183808323E3C22ED12CD382C282BC
:1001300035E3E32EF12CF582E48226E030E03093C3
:100140006700209366001092680001E310E01287B8
:100150000187C0E3D0E0D487C387A2E3B0E0B687CD
:10016000A5871092700010926F0010927100138B8F
:10017000028BD58BC48BB78BA68B88248394912C50
:10018000909279008092780010927A00148F038FF9
:10019000D68FC58FB0A3A78F52E0652E712C7092B9
:1001A000820060928100552453945092830015A3DD
:1001B00004A3D7A3C6A3B1A7A0A763E0262E312C22
:1001C00030928B0020928A0050928C0016A705A7CF
:1001D000D0ABC7A7B2ABA1AB74E0A72EB12CB09245
:1001E0009400A09293005092950097AB86AB91AF8C
:1001F00080AF93AF82AF30939D0020939C005092CC
:100200009E009093A00080939F009093A200809303
:10021000A1009093A4008093A3003093A6002093A4
:10022000A5005092A700E7E3F0E0F093A900E09367
:10023000A80066E370E07093AB006093AA0048E307
:1002400050E05093AD004093AC003093AF0020934A
:10025000AE005092B000F093B200E093B100709302
:10026000B4006093B3005093B6004093B5000F2ED6
:10027000F7E0AF2EB12CF02DB092B800A092B700ED
:100280005092B9001093BB000093BA00D093BD0008
:10029000C093BC00B093BF00A093BE000F2EF5E04A
:1002A000AF2EB12CF02DB092C100A092C0005092A0
:1002B000C2001093C4000093C300D093C600C09343
:1002C000C500B093C800A093C7003093CA00209324
:1002D000C9005092CB001093CD000093CC00D09376
:1002E000CF00C093CE00B093D100A093D000A7E080
:1002F000B0E0B093D300A093D2005092D400F0931A
:10030000D600E093D5007093D8006093D700509347
:10031000DA004093D9001092DC001092DB0050927A
:10032000DD00F093DF00E093DE007093E100609366
:10033000E0005093E3004093E2009092E500809249
:10034000E4005092E600F093E800E093E700709339
:10035000EA006093E9005093EC004093EB00709248
:10036000EE006092ED005092EF00F093F100E09308
:10037000F0007093F3006093F2005093F500409307
:10038000F4003092F7002092F6001092F800F093FB
:10039000FA00E093F9007093FC006093FB00509327
:1003A000FE004093FD00A4E0B0E0B0930001A093F4
:1003B000FF0010920101F0930301E093020170939A
:1003C0000501609304015093070140930601B09228
:1003D0000901A092080110920A0190930C018093E8
:1003E0000B0190930E0180930D0190931001809367
:1003F0000F01309312012093110150921301909339
:100400001501809314019093170180931601909326
:1004100019018093180130931B0120931A01509207
:100420001C0190931E0180931D01909320018093E5
:100430001F01909322018093210130932401209386
:100440002301509225019093270180932601D09299
:100450002901C0922801F0922B01E0922A0110920A
:100460002D0110922C0150922E0190933001809317
:100470002F01D0923201C0923101F0923401E0920A
:10048000330190923601809235015092370190935A
:10049000390180933801D0923B01C0923A01F09229
:1004A0003D01E0923C0170923F0160923E0150920A
:1004B00040019093420180934101D0924401C09247
:1004C0004301F0924601E0924501309248012092AA
:1004D00047015092490190934B0180934A01D09279
:1004E0004D01C0924C01F0924F01E0924E01B09349
:1004F0005101A09350015092520190935401809366
:100500005301D0925601C0925501F0925801E092E9
:100510005701B0925A01A092590150925B01DF91AC
:10052000CF911F910F91FF90EF90DF90CF90BF90F0
:10053000AF909F908F907F906F905F903F902F90A3
:1005400008951F920F920FB60F9211248F93AF93BD
:10055000BF93CF93DF93EF93FF93CDE5D4E0E88192
:100560008CB1AE2FB0E0A35ABC4F8C93EF5FE88301
:10057000F0E0E35AFC4F1082FF91EF91DF91CF91B1
:10058000BF91AF918F910F900FBE0F901F90189554
:1005900088E98AB986E880BD87E489B978940895A6
:1005A0005D9BFECF8CB9089581E59BE00197F1F743
:1005B00000C00000E0915C03F0E0E35AFC4F1081C2
:1005C000112391F31032E8F0E12FF0E0EE0FFF1F5E
:1005D000E45AFE4F0190F081E02D309791F009959B
:1005E000C82FD0E0812FDCDF10E0212F30E02C1766
:1005F0003D073CF4F901E45AFE4F8081D1DF1F5FD3
:10060000F4CF80915C038F5F80935C03CDCFE62FA6
:10061000F0E0EE0FFF1FE45AFE4F918380830895B0
:10062000EE0FFF1F0590F491E02D0994F894FFCF91
:00000001FF
