:1000000013C02CC02BC02AC029C028C027C026C0BE
:1000100025C024C023C023C021C020C01FC01EC0D3
:100020001DC01CC01BC06F0011241FBECFE5D4E053
:10003000DEBFCDBF22E0A0E6B0E001C01D92AD352D
:10004000B207E1F710E0C8E2D0E003C02297FE015A
:100050006DD2C632D107D1F72AD06CC2D1CF1F9250
:100060000F920FB60F9211248F93AF93BF93CF933C
:10007000DF93EF93FF93C0E6D0E0E8818CB1AE2F21
:10008000B0E0A05ABF4F11968C93EF5FE883F0E089
:10009000E05AFF4F1182FF91EF91DF91CF91BF9115
:1000A000AF918F910F900FBE0F901F9018951BB8B6
:1000B00088E98AB986E880BD80B58F7780BD10BC9D
:1000C00087E489B978948EE190E028E75D9BFECFC4
:1000D0002CB901970097D1F781E090E008952F9215
:1000E0003F925F926F927F928F929F92AF92BF9258
:1000F000CF92DF92EF92FF920F931F93CF93DF93F4
:10010000E1E6F1E084E390E09183808323E3C22E73
:10011000D12CD382C28235E3E32EF12CF582E48226
:1001200026E030E030936801209367011092690166
:1001300001E310E012870187C0E3D0E0D487C387D2
:10014000A2E3B0E0B687A58710927101109270010A
:1001500010927201138B028BD58BC48BB78BA68B3D
:1001600088248394912C90927A0180927901109244
:100170007B01148F038FD68FC58FB0A3A78F52E05A
:10018000652E712C709283016092820155245394E4
:100190005092840115A304A3D7A3C6A3B1A7A0A717
:1001A00063E0262E312C30928C0120928B015092EC
:1001B0008D0116A705A7D0ABC7A7B2ABA1AB74E062
:1001C000A72EB12CB0929501A09294015092960165
:1001D00097AB86AB91AF80AF93AF82AF30939E0168
:1001E00020939D0150929F019093A1018093A001C3
:1001F0009093A3018093A2019093A5018093A40101
:100200003093A7012093A6015092A801E7E3F0E004
:10021000F093AA01E093A90166E370E07093AC014A
:100220006093AB0148E350E05093AE014093AD01C1
:100230003093B0012093AF015092B101F093B3011C
:10024000E093B2017093B5016093B4015093B7018C
:100250004093B6010F2EF7E0AF2EB12CF02DB092E7
:10026000B901A092B8015092BA011093BC01009359
:10027000BB01D093BE01C093BD01B093C001A09358
:10028000BF010F2EF5E0AF2EB12CF02DB092C201C0
:10029000A092C1015092C3011093C5010093C40103
:1002A000D093C701C093C601B093C901A093C80100
:1002B0003093CB012093CA015092CC011093CE0110
:1002C0000093CD01D093D001C093CF01B093D20160
:1002D000A093D101A7E0B0E0B093D401A093D301E3
:1002E0005092D501F093D701E093D6017093D901D4
:1002F0006093D8015093DB014093DA011092DD0145
:100300001092DC015092DE01F093E001E093DF01F6
:100310007093E2016093E1015093E4014093E301A3
:100320009092E6018092E5015092E701F093E90195
:10033000E093E8017093EB016093EA015093ED01C3
:100340004093EC017092EF016092EE015092F00147
:10035000F093F201E093F1017093F4016093F301E3
:100360005093F6014093F5013092F8012092F70185
:100370001092F901F093FB01E093FA017093FD01F3
:100380006093FC015093FF014093FE01A4E0B0E0B4
:10039000B0930102A093000210920202F0930402B3
:1003A000E0930302709306026093050250930802E3
:1003B00040930702B0920A02A092090210920B0227
:1003C00090930D0280930C0290930F0280930E0283
:1003D0009093110280931002309313022093120223
:1003E0005092140290931602809315029093180273
:1003F0008093170290931A028093190230931C0283
:1004000020931B0250921D0290931F0280931E02A4
:1004100090932102809320029093230280932202E2
:1004200030932502209324025092260290932802B2
:1004300080932702D0922A02C0922902F0922C02C5
:10044000E0922B0210922E0210922D0250922F0257
:100450009093310280933002D0923302C0923202E4
:10046000F0923502E0923402909237028092360286
:100470005092380290933A0280933902D0923C0213
:10048000C0923B02F0923E02E0923D027092400226
:1004900060923F0250924102909343028093420245
:1004A000D0924502C0924402F0924702E092460286
:1004B000309249022092480250924A0290934C0294
:1004C00080934B02D0924E02C0924D02F0925002A5
:1004D000E0924F02B0935202A09351025092530205
:1004E0009093550280935402D0925702C0925602C4
:1004F000F0925902E0925802B0925B02A0925A0226
:1005000050925C02DF91CF911F910F91FF90EF907D
:10051000DF90CF90BF90AF909F908F907F906F9023
:100520005F903F902F900895EE0FFF1F0590F4917C
:08053000E02D0994F894FFCFBF
:00000001FF
