:1000000013C02CC02BC02AC029C028C027C026C0BE
:1000100025C024C023C022C021C020C01FC01EC0D4
:100020001DC01CC01BC0060111241FBECFE5D4E0BB
:10003000DEBFCDBF21E0A0E6B0E001C01D92AC352F
:10004000B207E1F710E0C8E2D0E003C02297FE015A
:1000500004D3C632D107D1F702D003C3D1CFCF9397
:10006000DF9300D000D0CDB7DEB700E010E084E031
:10007000682E712C95E0292E312C26E0422E512C31
:100080003BE0E32EF12C4CE0C42ED12C5DE0A52EFC
:10009000B12C6EE0862E912C98012170332700FD43
:1000A0002EC07A826982CE0101962B833C8397D041
:1000B0007BD03A822982CE01019691D075D05A82A6
:1000C0004982CE0101968BD06FD0FA82E982CE01AF
:1000D000019685D069D0DA82C982CE0101967FD09F
:1000E00063D0BA82A982CE01019679D05DD09A827E
:1000F0008982CE01019673D057D03C812B8121306B
:10010000310551F57A826982CE01019668D030D0EE
:100110003A822982CE01019662D02AD05A8249823F
:10012000CE0101965CD024D0FA82E982CE010196FC
:1001300056D01ED0DA82C982CE01019650D018D096
:10014000BA82A982CE0101964AD012D09A828982BF
:10015000CE01019644D00CD00F5F1F4F2FEF8FEBD5
:1001600091E2215080409040E1F700C0000094CF20
:10017000FC01A081B1814C9181E090E09C0106805E
:1001800002C0220F331F0A94E2F7422B4C93A48142
:10019000B5812C91068002C0880F991F0A94E2F75E
:1001A000809582238C930895FC01A081B1814C91AC
:1001B00081E090E09C01068002C0220F331F0A9468
:1001C000E2F7422B4C93A481B5812C91068002C0AA
:1001D000880F991F0A94E2F7282B2C930895FC01AD
:1001E0008081918101978C31910568F429E0289FE5
:1001F000F001299FF00D1124E05AFF4F80858823DC
:1002000011F0CF01089580E690E008952F923F927B
:100210005F926F927F928F929F92AF92BF92CF9296
:10022000DF92EF92FF920F931F93CF93DF93E0E65D
:10023000F0E084E390E09183808323E3C22ED12C0D
:10024000D382C28235E3E32EF12CF582E48226E0EC
:1002500030E030936700209366001092680001E35D
:1002600010E012870187C0E3D0E0D487C387A2E300
:10027000B0E0B687A5871092700010926F001092C0
:100280007100138B028BD58BC48BB78BA68B882404
:100290008394912C909279008092780010927A0049
:1002A000148F038FD68FC58FB0A3A78F52E0652E12
:1002B000712C709282006092810055245394509268
:1002C000830015A304A3D7A3C6A3B1A7A0A763E087
:1002D000262E312C30928B0020928A0050928C0076
:1002E00016A705A7D0ABC7A7B2ABA1AB74E0A72EEA
:1002F000B12CB0929400A09293005092950097ABCD
:1003000086AB91AF80AF93AF82AF30939D002093C7
:100310009C0050929E009093A00080939F00909329
:10032000A2008093A1009093A4008093A300309337
:10033000A6002093A5005092A700E7E3F0E0F09319
:10034000A900E093A80066E370E07093AB006093AF
:10035000AA0048E350E05093AD004093AC003093C6
:10036000AF002093AE005092B000F093B200E09343
:10037000B1007093B4006093B3005093B600409303
:10038000B5000F2EF7E0AF2EB12CF02DB092B800D3
:10039000A092B7005092B9001093BB000093BA002E
:1003A000D093BD00C093BC00B093BF00A093BE002B
:1003B0000F2EF5E0AF2EB12CF02DB092C100A0921F
:1003C000C0005092C2001093C4000093C300D093A9
:1003D000C600C093C500B093C800A093C700309377
:1003E000CA002093C9005092CB001093CD00009317
:1003F000CC00D093CF00C093CE00B093D100A09397
:10040000D000A7E0B0E0B093D300A093D200509208
:10041000D400F093D600E093D5007093D800609399
:10042000D7005093DA004093D9001092DC0010926C
:10043000DB005092DD00F093DF00E093DE0070936C
:10044000E1006093E0005093E3004093E20090925B
:10045000E5008092E4005092E600F093E800E0931B
:10046000E7007093EA006093E9005093EC0040933A
:10047000EB007092EE006092ED005092EF00F0936E
:10048000F100E093F0007093F3006093F20050935A
:10049000F5004093F4003092F7002092F60010929D
:1004A000F800F093FA00E093F9007093FC00609379
:1004B000FB005093FE004093FD00A4E0B0E0B09339
:1004C0000001A093FF0010920101F0930301E0935B
:1004D000020170930501609304015093070140935A
:1004E0000601B0920901A092080110920A019093AE
:1004F0000C0180930B0190930E0180930D0190935A
:10050000100180930F01309312012093110150923A
:100510001301909315018093140190931701809318
:100520001601909319018093180130931B012093B9
:100530001A0150921C0190931E0180931D0190930B
:10054000200180931F019093220180932101309319
:100550002401209323015092250190932701809339
:100560002601D0922901C0922801F0922B01E0923D
:100570002A0110922D0110922C0150922E0190937D
:10058000300180932F01D0923201C0923101F0925C
:100590003401E092330190923601809235015092FD
:1005A00037019093390180933801D0923B01C0927A
:1005B0003A01F0923D01E0923C0170923F0160925D
:1005C0003E01509240019093420180934101D092AC
:1005D0004401C0924301F0924601E09245013092FD
:1005E0004801209247015092490190934B0180931A
:1005F0004A01D0924D01C0924C01F0924F01E0921D
:100600004E01B0935101A09350015092520190932A
:10061000540180935301D0925601C0925501F0923B
:100620005801E0925701B0925A01A092590150929C
:100630005B01DF91CF911F910F91FF90EF90DF90C1
:10064000CF90BF90AF909F908F907F906F905F9072
:100650003F902F900895EE0FFF1F0590F491E02D2D
:060660000994F894FFCF9D
:00000001FF
